{
  "_format": "hh3-artifact-1",
  "contractName": "ImageProvenance",
  "sourceName": "contracts/ImageProvenance.sol",
  "abi": [
    {
      "inputs": [],
      "stateMutability": "nonpayable",
      "type": "constructor"
    },
    {
      "anonymous": false,
      "inputs": [
        {
          "indexed": true,
          "internalType": "address",
          "name": "newAdmin",
          "type": "address"
        }
      ],
      "name": "AdminAdded",
      "type": "event"
    },
    {
      "anonymous": false,
      "inputs": [
        {
          "indexed": true,
          "internalType": "address",
          "name": "admin",
          "type": "address"
        }
      ],
      "name": "AdminRemoved",
      "type": "event"
    },
    {
      "anonymous": false,
      "inputs": [
        {
          "indexed": true,
          "internalType": "bytes32",
          "name": "hash",
          "type": "bytes32"
        },
        {
          "indexed": true,
          "internalType": "address",
          "name": "owner",
          "type": "address"
        }
      ],
      "name": "ImageBurned",
      "type": "event"
    },
    {
      "anonymous": false,
      "inputs": [
        {
          "indexed": true,
          "internalType": "bytes32",
          "name": "hash",
          "type": "bytes32"
        }
      ],
      "name": "ImageFlagged",
      "type": "event"
    },
    {
      "anonymous": false,
      "inputs": [
        {
          "indexed": true,
          "internalType": "address",
          "name": "creator",
          "type": "address"
        },
        {
          "indexed": false,
          "internalType": "bytes32",
          "name": "hash",
          "type": "bytes32"
        },
        {
          "indexed": false,
          "internalType": "string",
          "name": "metadataCID",
          "type": "string"
        }
      ],
      "name": "ImageRegistered",
      "type": "event"
    },
    {
      "anonymous": false,
      "inputs": [
        {
          "indexed": true,
          "internalType": "bytes32",
          "name": "hash",
          "type": "bytes32"
        },
        {
          "indexed": true,
          "internalType": "address",
          "name": "from",
          "type": "address"
        },
        {
          "indexed": true,
          "internalType": "address",
          "name": "to",
          "type": "address"
        }
      ],
      "name": "ImageTransferred",
      "type": "event"
    },
    {
      "anonymous": false,
      "inputs": [
        {
          "indexed": true,
          "internalType": "bytes32",
          "name": "hash",
          "type": "bytes32"
        }
      ],
      "name": "ImageUnflagged",
      "type": "event"
    },
    {
      "anonymous": false,
      "inputs": [
        {
          "indexed": true,
          "internalType": "bytes32",
          "name": "hash",
          "type": "bytes32"
        },
        {
          "indexed": false,
          "internalType": "string",
          "name": "oldMetadataCID",
          "type": "string"
        },
        {
          "indexed": false,
          "internalType": "string",
          "name": "newMetadataCID",
          "type": "string"
        }
      ],
      "name": "MetadataUpdated",
      "type": "event"
    },
    {
      "anonymous": false,
      "inputs": [
        {
          "indexed": true,
          "internalType": "address",
          "name": "user",
          "type": "address"
        }
      ],
      "name": "UserRegistered",
      "type": "event"
    },
    {
      "anonymous": false,
      "inputs": [
        {
          "indexed": true,
          "internalType": "address",
          "name": "user",
          "type": "address"
        }
      ],
      "name": "UserRevoked",
      "type": "event"
    },
    {
      "inputs": [
        {
          "internalType": "address",
          "name": "_newAdmin",
          "type": "address"
        }
      ],
      "name": "addAdmin",
      "outputs": [],
      "stateMutability": "nonpayable",
      "type": "function"
    },
    {
      "inputs": [
        {
          "internalType": "uint256",
          "name": "",
          "type": "uint256"
        }
      ],
      "name": "allImageHashes",
      "outputs": [
        {
          "internalType": "bytes32",
          "name": "",
          "type": "bytes32"
        }
      ],
      "stateMutability": "view",
      "type": "function"
    },
    {
      "inputs": [
        {
          "internalType": "bytes32",
          "name": "_hash",
          "type": "bytes32"
        }
      ],
      "name": "burnImage",
      "outputs": [],
      "stateMutability": "nonpayable",
      "type": "function"
    },
    {
      "inputs": [
        {
          "internalType": "address",
          "name": "_user",
          "type": "address"
        }
      ],
      "name": "checkUser",
      "outputs": [
        {
          "internalType": "bool",
          "name": "",
          "type": "bool"
        }
      ],
      "stateMutability": "view",
      "type": "function"
    },
    {
      "inputs": [
        {
          "internalType": "bytes32",
          "name": "_hash",
          "type": "bytes32"
        }
      ],
      "name": "flagImage",
      "outputs": [],
      "stateMutability": "nonpayable",
      "type": "function"
    },
    {
      "inputs": [],
      "name": "getAllImages",
      "outputs": [
        {
          "internalType": "bytes32[]",
          "name": "",
          "type": "bytes32[]"
        }
      ],
      "stateMutability": "view",
      "type": "function"
    },
    {
      "inputs": [
        {
          "internalType": "bytes32",
          "name": "_hash",
          "type": "bytes32"
        }
      ],
      "name": "getImageHistory",
      "outputs": [
        {
          "internalType": "address[]",
          "name": "",
          "type": "address[]"
        }
      ],
      "stateMutability": "view",
      "type": "function"
    },
    {
      "inputs": [
        {
          "internalType": "address",
          "name": "_user",
          "type": "address"
        }
      ],
      "name": "getUserImages",
      "outputs": [
        {
          "internalType": "bytes32[]",
          "name": "",
          "type": "bytes32[]"
        }
      ],
      "stateMutability": "view",
      "type": "function"
    },
    {
      "inputs": [
        {
          "internalType": "bytes32",
          "name": "",
          "type": "bytes32"
        }
      ],
      "name": "imageExists",
      "outputs": [
        {
          "internalType": "bool",
          "name": "",
          "type": "bool"
        }
      ],
      "stateMutability": "view",
      "type": "function"
    },
    {
      "inputs": [
        {
          "internalType": "bytes32",
          "name": "",
          "type": "bytes32"
        }
      ],
      "name": "images",
      "outputs": [
        {
          "internalType": "bytes32",
          "name": "imageHash",
          "type": "bytes32"
        },
        {
          "internalType": "string",
          "name": "metadataCID",
          "type": "string"
        },
        {
          "internalType": "address",
          "name": "owner",
          "type": "address"
        },
        {
          "internalType": "uint256",
          "name": "timestamp",
          "type": "uint256"
        },
        {
          "internalType": "bool",
          "name": "isTampered",
          "type": "bool"
        },
        {
          "internalType": "bool",
          "name": "isBurned",
          "type": "bool"
        }
      ],
      "stateMutability": "view",
      "type": "function"
    },
    {
      "inputs": [
        {
          "internalType": "address",
          "name": "",
          "type": "address"
        }
      ],
      "name": "isAdmin",
      "outputs": [
        {
          "internalType": "bool",
          "name": "",
          "type": "bool"
        }
      ],
      "stateMutability": "view",
      "type": "function"
    },
    {
      "inputs": [
        {
          "internalType": "address",
          "name": "",
          "type": "address"
        }
      ],
      "name": "isBlacklisted",
      "outputs": [
        {
          "internalType": "bool",
          "name": "",
          "type": "bool"
        }
      ],
      "stateMutability": "view",
      "type": "function"
    },
    {
      "inputs": [
        {
          "internalType": "address",
          "name": "",
          "type": "address"
        }
      ],
      "name": "isUserRegistered",
      "outputs": [
        {
          "internalType": "bool",
          "name": "",
          "type": "bool"
        }
      ],
      "stateMutability": "view",
      "type": "function"
    },
    {
      "inputs": [],
      "name": "owner",
      "outputs": [
        {
          "internalType": "address",
          "name": "",
          "type": "address"
        }
      ],
      "stateMutability": "view",
      "type": "function"
    },
    {
      "inputs": [
        {
          "internalType": "bytes32",
          "name": "_hash",
          "type": "bytes32"
        },
        {
          "internalType": "string",
          "name": "_metadataCID",
          "type": "string"
        }
      ],
      "name": "registerImage",
      "outputs": [],
      "stateMutability": "nonpayable",
      "type": "function"
    },
    {
      "inputs": [
        {
          "internalType": "address",
          "name": "_user",
          "type": "address"
        }
      ],
      "name": "registerUser",
      "outputs": [],
      "stateMutability": "nonpayable",
      "type": "function"
    },
    {
      "inputs": [
        {
          "internalType": "address",
          "name": "_admin",
          "type": "address"
        }
      ],
      "name": "removeAdmin",
      "outputs": [],
      "stateMutability": "nonpayable",
      "type": "function"
    },
    {
      "inputs": [
        {
          "internalType": "address",
          "name": "_user",
          "type": "address"
        }
      ],
      "name": "revokeUser",
      "outputs": [],
      "stateMutability": "nonpayable",
      "type": "function"
    },
    {
      "inputs": [],
      "name": "totalImages",
      "outputs": [
        {
          "internalType": "uint256",
          "name": "",
          "type": "uint256"
        }
      ],
      "stateMutability": "view",
      "type": "function"
    },
    {
      "inputs": [
        {
          "internalType": "bytes32",
          "name": "_hash",
          "type": "bytes32"
        },
        {
          "internalType": "address",
          "name": "_to",
          "type": "address"
        }
      ],
      "name": "transferImage",
      "outputs": [],
      "stateMutability": "nonpayable",
      "type": "function"
    },
    {
      "inputs": [
        {
          "internalType": "bytes32",
          "name": "_hash",
          "type": "bytes32"
        }
      ],
      "name": "unflagImage",
      "outputs": [],
      "stateMutability": "nonpayable",
      "type": "function"
    },
    {
      "inputs": [
        {
          "internalType": "bytes32",
          "name": "_hash",
          "type": "bytes32"
        },
        {
          "internalType": "string",
          "name": "_newMetadataCID",
          "type": "string"
        }
      ],
      "name": "updateMetadata",
      "outputs": [],
      "stateMutability": "nonpayable",
      "type": "function"
    },
    {
      "inputs": [
        {
          "internalType": "bytes32",
          "name": "_hash",
          "type": "bytes32"
        }
      ],
      "name": "verifyImage",
      "outputs": [
        {
          "components": [
            {
              "internalType": "bytes32",
              "name": "imageHash",
              "type": "bytes32"
            },
            {
              "internalType": "string",
              "name": "metadataCID",
              "type": "string"
            },
            {
              "internalType": "address",
              "name": "owner",
              "type": "address"
            },
            {
              "internalType": "uint256",
              "name": "timestamp",
              "type": "uint256"
            },
            {
              "internalType": "bool",
              "name": "isTampered",
              "type": "bool"
            },
            {
              "internalType": "bool",
              "name": "isBurned",
              "type": "bool"
            }
          ],
          "internalType": "struct ImageProvenance.Image",
          "name": "",
          "type": "tuple"
        }
      ],
      "stateMutability": "view",
      "type": "function"
    }
  ],
  "bytecode": "0x6080604052348015600e575f5ffd5b505f80546001600160a01b0319163390811782558152600560205260409020805460ff19166001179055611e8e806100455f395ff3fe608060405234801561000f575f5ffd5b5060043610610148575f3560e01c80637c37cd16116100bf578063e32564cd11610079578063e32564cd14610331578063eb6bbd7814610351578063ef097fc414610364578063f158160f14610377578063fade88341461038a578063fe575a8714610393575f5ffd5b80637c37cd16146102885780638c58bb2b1461029b5780638da5cb5b146102c05780639498b967146102ea578063a375765e146102fd578063ab480cf214610310575f5ffd5b80632199d5cd116101105780632199d5cd146101e957806324d7806c146101fc578063427770d61461021e5780637048027514610240578063793becf9146102535780637b7284fc14610273575f5ffd5b8063163f75221461014c5780631785f53c1461018357806317b3577f146101985780631b68a3ba146101ab5780631e9d48cf146101be575b5f5ffd5b61016e61015a3660046118ce565b60066020525f908152604090205460ff1681565b60405190151581526020015b60405180910390f35b6101966101913660046118ce565b6103b5565b005b6101966101a63660046118ee565b6104f5565b6101966101b9366004611918565b610781565b61016e6101cc3660046118ce565b6001600160a01b03165f9081526006602052604090205460ff1690565b6101966101f73660046118ce565b610910565b61016e61020a3660046118ce565b60056020525f908152604090205460ff1681565b61016e61022c366004611918565b60096020525f908152604090205460ff1681565b61019661024e3660046118ce565b610ab5565b610266610261366004611918565b610be7565b60405161017a919061192f565b61027b610c50565b60405161017a919061197a565b6101966102963660046119c5565b610ca6565b6102ae6102a9366004611918565b610f40565b60405161017a96959493929190611ab0565b5f546102d2906001600160a01b031681565b6040516001600160a01b03909116815260200161017a565b6101966102f8366004611918565b61100c565b61019661030b3660046119c5565b611111565b61032361031e366004611918565b611362565b60405190815260200161017a565b61034461033f366004611918565b611381565b60405161017a9190611af8565b61027b61035f3660046118ce565b611570565b6101966103723660046118ce565b6115d8565b610196610385366004611918565b6116da565b61032360015481565b61016e6103a13660046118ce565b60076020525f908152604090205460ff1681565b5f546001600160a01b031633146103e75760405162461bcd60e51b81526004016103de90611b5d565b60405180910390fd5b6001600160a01b0381165f9081526005602052604090205460ff166104455760405162461bcd60e51b815260206004820152601460248201527320b2323932b9b99034b9903737ba1030b236b4b760611b60448201526064016103de565b5f546001600160a01b03908116908216036104ad5760405162461bcd60e51b815260206004820152602260248201527f43616e6e6f742072656d6f766520746865206f776e65722066726f6d2061646d60448201526134b760f11b60648201526084016103de565b6001600160a01b0381165f81815260056020526040808220805460ff19169055517fa3b62bc36326052d97ea62d63c3d60308ed4c3ea8ac079dd8499f1e9c4f80c0f9190a250565b5f828152600860205260409020600201546001600160a01b0316331461052d5760405162461bcd60e51b81526004016103de90611b9f565b6001600160a01b0381165f9081526006602052604090205460ff1661059f5760405162461bcd60e51b815260206004820152602260248201527f526563697069656e74206973206e6f742061207265676973746572656420757360448201526132b960f11b60648201526084016103de565b6001600160a01b0381166105f55760405162461bcd60e51b815260206004820152601f60248201527f43616e6e6f74207472616e7366657220746f207a65726f20616464726573730060448201526064016103de565b5f8281526008602052604090206004015460ff16156106675760405162461bcd60e51b815260206004820152602860248201527f43616e6e6f74207472616e7366657220612074656d70657265642f666c616767604482015267656420696d61676560c01b60648201526084016103de565b5f82815260086020526040902060040154610100900460ff16156106cd5760405162461bcd60e51b815260206004820152601e60248201527f43616e6e6f74207472616e736665722061206275726e656420696d616765000060448201526064016103de565b5f82815260086020908152604080832060020180546001600160a01b0386166001600160a01b0319918216811790925581855260038452828520805460018181018355918752858720018890558786526004855292852080549384018155855292909320018054909116909117905561074633836117f4565b6040516001600160a01b03821690339084907fe3ddb0424a8e105e63a1b0965571d8a4eb42ed4c1cc6f82bd614b9c686e38176905f90a45050565b5f8181526009602052604090205460ff166107ae5760405162461bcd60e51b81526004016103de90611be2565b5f818152600860205260409020600201546001600160a01b031633146108165760405162461bcd60e51b815260206004820152601e60248201527f4f6e6c79206f776e65722063616e206275726e207468697320696d616765000060448201526064016103de565b5f81815260086020526040902060040154610100900460ff161561087c5760405162461bcd60e51b815260206004820152601760248201527f496d61676520697320616c7265616479206275726e656400000000000000000060448201526064016103de565b5f81815260086020526040902060048101805461ff00191661010017905560020180546001600160a01b03191690556108b533826117f4565b5f818152600460209081526040808320805460018101825590845291832090910180546001600160a01b031916905551339183917f385aef840b998b344f87910d302abf34c9348280b95404f7d258b513d0ce7fae9190a350565b335f9081526005602052604090205460ff168061093657505f546001600160a01b031633145b6109525760405162461bcd60e51b81526004016103de90611c10565b6001600160a01b0381165f9081526006602052604090205460ff16156109ba5760405162461bcd60e51b815260206004820152601760248201527f5573657220616c7265616479207265676973746572656400000000000000000060448201526064016103de565b6001600160a01b0381165f9081526007602052604090205460ff1615610a225760405162461bcd60e51b815260206004820152601f60248201527f55736572206973207065726d616e656e746c7920626c61636b6c69737465640060448201526064016103de565b6001600160a01b038116610a6a5760405162461bcd60e51b815260206004820152600f60248201526e1059191c995cdcc81a5b9d985b1a59608a1b60448201526064016103de565b6001600160a01b0381165f81815260066020526040808220805460ff19166001179055517f54db7a5cb4735e1aac1f53db512d3390390bb6637bd30ad4bf9fc98667d9b9b99190a250565b5f546001600160a01b03163314610ade5760405162461bcd60e51b81526004016103de90611b5d565b6001600160a01b038116610b345760405162461bcd60e51b815260206004820152601d60248201527f496e76616c6964206164647265737320666f72206e65772061646d696e00000060448201526064016103de565b6001600160a01b0381165f9081526005602052604090205460ff1615610b9c5760405162461bcd60e51b815260206004820152601b60248201527f4164647265737320697320616c726561647920616e2061646d696e000000000060448201526064016103de565b6001600160a01b0381165f81815260056020526040808220805460ff19166001179055517f44d6d25963f097ad14f29f06854a01f575648a1ef82f30e562ccd3889717e3399190a250565b5f81815260046020908152604091829020805483518184028101840190945280845260609392830182828015610c4457602002820191905f5260205f20905b81546001600160a01b03168152600190910190602001808311610c26575b50505050509050919050565b60606002805480602002602001604051908101604052809291908181526020018280548015610c9c57602002820191905f5260205f20905b815481526020019060010190808311610c88575b5050505050905090565b335f9081526006602052604090205460ff16610d045760405162461bcd60e51b815260206004820152601f60248201527f506c65617365207265676973746572206173206120757365722066697273740060448201526064016103de565b5f8281526009602052604090205460ff1615610d625760405162461bcd60e51b815260206004820152601860248201527f496d61676520616c72656164792072656769737465726564000000000000000060448201526064016103de565b81610da45760405162461bcd60e51b8152602060048201526012602482015271092dcecc2d8d2c840d2dac2ceca40d0c2e6d60731b60448201526064016103de565b6040805160c081018252838152602080820184815233838501524260608401525f6080840181905260a0840181905286815260089092529290208151815591519091906001820190610df69082611ce3565b50604082810151600280840180546001600160a01b039093166001600160a01b0319938416179055606085015160038086019190915560808601516004958601805460a09098015115156101000261ff00199215159290921661ffff1990981697909717179095555f87815260096020908152848220805460ff1916600190811790915583548082019094557f405787fa12a823e0f2b7631cc41b3ba8828b3321ca811111fa75cd3aa3bb5ace909301899055338083529681528482208054808501825590835281832001899055888252948552928320805480830182559084529383209093018054909116909317909255805491610ef483611db2565b9190505550336001600160a01b03167f0d5d2f0069bde21ccbadac7028638c66886004a578ed5e7cbf1855cac624d5858383604051610f34929190611dca565b60405180910390a25050565b60086020525f908152604090208054600182018054919291610f6190611c54565b80601f0160208091040260200160405190810160405280929190818152602001828054610f8d90611c54565b8015610fd85780601f10610faf57610100808354040283529160200191610fd8565b820191905f5260205f20905b815481529060010190602001808311610fbb57829003601f168201915b505050506002830154600384015460049094015492936001600160a01b039091169290915060ff8082169161010090041686565b335f9081526005602052604090205460ff168061103257505f546001600160a01b031633145b61104e5760405162461bcd60e51b81526004016103de90611c10565b5f8181526009602052604090205460ff1661107b5760405162461bcd60e51b81526004016103de90611be2565b5f8181526008602052604090206004015460ff166110cf5760405162461bcd60e51b8152602060048201526011602482015270696d616765206973206e6f7420666c616760781b60448201526064016103de565b5f81815260086020526040808220600401805460ff191690555182917fc291f046802afb14e6252c04b23a9591748318f0ec8f69b49b9feb30be1cf1b791a250565b5f8281526009602052604090205460ff1661113e5760405162461bcd60e51b81526004016103de90611be2565b5f828152600860205260409020600201546001600160a01b031633146111765760405162461bcd60e51b81526004016103de90611b9f565b5f8281526008602052604090206004015460ff16156111f35760405162461bcd60e51b815260206004820152603360248201527f43616e6e6f7420757064617465206d6574616461746120666f7220612074656d60448201527270657265642f666c616767656420696d61676560681b60648201526084016103de565b5f82815260086020526040902060040154610100900460ff161561126b5760405162461bcd60e51b815260206004820152602960248201527f43616e6e6f7420757064617465206d6574616461746120666f722061206275726044820152686e656420696d61676560b81b60648201526084016103de565b5f828152600860205260408120600101805461128690611c54565b80601f01602080910402602001604051908101604052809291908181526020018280546112b290611c54565b80156112fd5780601f106112d4576101008083540402835291602001916112fd565b820191905f5260205f20905b8154815290600101906020018083116112e057829003601f168201915b5050505f86815260086020526040902092935050600190910190506113228382611ce3565b50827fc42c4edbc41dce02b01dd098a1f7a4c685c638d7a2fdfbe449b32e1f89fbfae18284604051611355929190611dea565b60405180910390a2505050565b60028181548110611371575f80fd5b5f91825260209091200154905081565b6113c26040518060c001604052805f8152602001606081526020015f6001600160a01b031681526020015f81526020015f151581526020015f151581525090565b816114065760405162461bcd60e51b8152602060048201526014602482015273456d70747920686173682070726f76696465642160601b60448201526064016103de565b5f8281526009602052604090205460ff166114785760405162461bcd60e51b815260206004820152602c60248201527f5468697320696d616765206973206e6f74207665726966696564206f7220646f60448201526b195cc81b9bdd08195e1a5cdd60a21b60648201526084016103de565b60085f8381526020019081526020015f206040518060c00160405290815f82015481526020016001820180546114ad90611c54565b80601f01602080910402602001604051908101604052809291908181526020018280546114d990611c54565b80156115245780601f106114fb57610100808354040283529160200191611524565b820191905f5260205f20905b81548152906001019060200180831161150757829003601f168201915b505050918352505060028201546001600160a01b031660208201526003820154604082015260049091015460ff8082161515606084015261010090910416151560809091015292915050565b6001600160a01b0381165f90815260036020908152604091829020805483518184028101840190945280845260609392830182828015610c4457602002820191905f5260205f20905b8154815260200190600101908083116115b95750505050509050919050565b335f9081526005602052604090205460ff16806115fe57505f546001600160a01b031633145b61161a5760405162461bcd60e51b81526004016103de90611c10565b6001600160a01b0381165f9081526006602052604090205460ff1661167a5760405162461bcd60e51b8152602060048201526016602482015275155cd95c881a5cc81b9bdd081c9959da5cdd195c995960521b60448201526064016103de565b6001600160a01b0381165f818152600660209081526040808320805460ff1990811690915560079092528083208054909216600117909155517fb43ac7bf01d16ebcb8c868a4c03fecb1f6984ea4fa1a52c116ef282b8dbb17c59190a250565b335f9081526005602052604090205460ff168061170057505f546001600160a01b031633145b61171c5760405162461bcd60e51b81526004016103de90611c10565b5f8181526009602052604090205460ff166117495760405162461bcd60e51b81526004016103de90611be2565b5f81815260086020526040902060040154610100900460ff16156117af5760405162461bcd60e51b815260206004820152601a60248201527f43616e6e6f7420666c61672061206275726e656420696d61676500000000000060448201526064016103de565b5f81815260086020526040808220600401805460ff191660011790555182917f72dd90b452e9677b9be1ff4db17018db11cff6187e5a73b25991f43a98bb8d6791a250565b6001600160a01b0382165f908152600360205260408120805490915b818110156118ac578383828154811061182b5761182b611e17565b905f5260205f200154036118a45782611845600184611e2b565b8154811061185557611855611e17565b905f5260205f20015483828154811061187057611870611e17565b905f5260205f2001819055508280548061188c5761188c611e44565b600190038181905f5260205f20015f905590556118ac565b600101611810565b5050505050565b80356001600160a01b03811681146118c9575f5ffd5b919050565b5f602082840312156118de575f5ffd5b6118e7826118b3565b9392505050565b5f5f604083850312156118ff575f5ffd5b8235915061190f602084016118b3565b90509250929050565b5f60208284031215611928575f5ffd5b5035919050565b602080825282518282018190525f918401906040840190835b8181101561196f5783516001600160a01b0316835260209384019390920191600101611948565b509095945050505050565b602080825282518282018190525f918401906040840190835b8181101561196f578351835260209384019390920191600101611993565b634e487b7160e01b5f52604160045260245ffd5b5f5f604083850312156119d6575f5ffd5b82359150602083013567ffffffffffffffff8111156119f3575f5ffd5b8301601f81018513611a03575f5ffd5b803567ffffffffffffffff811115611a1d57611a1d6119b1565b604051601f8201601f19908116603f0116810167ffffffffffffffff81118282101715611a4c57611a4c6119b1565b604052818152828201602001871015611a63575f5ffd5b816020840160208301375f602083830101528093505050509250929050565b5f81518084528060208401602086015e5f602082860101526020601f19601f83011685010191505092915050565b86815260c060208201525f611ac860c0830188611a82565b6001600160a01b039690961660408301525060608101939093529015156080830152151560a09091015292915050565b60208152815160208201525f602083015160c06040840152611b1d60e0840182611a82565b905060018060a01b036040850151166060840152606084015160808401526080840151151560a084015260a0840151151560c08401528091505092915050565b60208082526022908201527f4f6e6c79206f776e65722063616e20706572666f726d2074686973206163746960408201526137b760f11b606082015260800190565b60208082526023908201527f596f7520617265206e6f7420746865206f776e6572206f66207468697320696d60408201526261676560e81b606082015260800190565b602080825260149082015273125b5859d948191bd95cc81b9bdd08195e1a5cdd60621b604082015260600190565b60208082526024908201527f4f6e6c792061646d696e206f72206f776e65722063616e20706572666f726d206040820152637468697360e01b606082015260800190565b600181811c90821680611c6857607f821691505b602082108103611c8657634e487b7160e01b5f52602260045260245ffd5b50919050565b601f821115611cde5782821115611cde57805f5260205f20601f840160051c6020851015611cb757505f5b90810190601f840160051c035f5b81811015611cda575f83820155600101611cc5565b5050505b505050565b815167ffffffffffffffff811115611cfd57611cfd6119b1565b611d1181611d0b8454611c54565b84611c8c565b6020601f821160018114611d43575f8315611d2c5750848201515b5f19600385901b1c1916600184901b1784556118ac565b5f84815260208120601f198516915b82811015611d725787850151825560209485019460019092019101611d52565b5084821015611d8f57868401515f19600387901b60f8161c191681555b50505050600190811b01905550565b634e487b7160e01b5f52601160045260245ffd5b5f60018201611dc357611dc3611d9e565b5060010190565b828152604060208201525f611de26040830184611a82565b949350505050565b604081525f611dfc6040830185611a82565b8281036020840152611e0e8185611a82565b95945050505050565b634e487b7160e01b5f52603260045260245ffd5b81810381811115611e3e57611e3e611d9e565b92915050565b634e487b7160e01b5f52603160045260245ffdfea2646970667358221220896acc91121c9b2e3288b7bf649753c693afdf4ae7c6319ad2dc23b0a6a3ef3a64736f6c63430008200033",
  "linkReferences": {},
  "deployedLinkReferences": {},
  "immutableReferences": {},
  "inputSourceName": "project/contracts/ImageProvenance.sol",
  "buildInfoId": "solc-0_8_32-832f6ca2971ddf1722ab8e320d4883bfd770349a"
}